:020000040800F2
:1000000000000220551E0008A51E0008A51E0008BD
:10001000A51E0008A51E0008A51E0008000000007F
:10002000000000000000000000000000A51E000805
:10003000A51E000800000000A51E0008A51E00085F
:10004000A51E0008A51E0008A51E0008A51E000884
:10005000A51E0008A51E0008B5090008390A0008F9
:10006000A51E0008A51E0008A51E0008A51E000864
:10007000A51E0008A51E0008A51E0008A51E000854
:10008000A51E0008A51E0008A51E0008A51E000844
:10009000A51E0008A51E0008A51E0008A51E000834
:1000A000A51E0008A51E0008A51E0008A51E000824
:1000B000A51E0008A51E0008A51E0008A51E000814
:1000C000A51E0008A51E0008A51E0008A51E000804
:1000D000A51E0008C91F0008A51E0008A51E0008CF
:1000E000A51E0008A51E0008A51E0008A51E0008E4
:1000F000A51E0008A51E0008A51E0008A51E0008D4
:1001000000000000A51E0008A51E0008A51E00088E
:100110000000000000000000A51E0008A51E000849
:10012000A51E0008A51E0008A51E0008A51E0008A3
:10013000A51E0008A51E0008A51E0008A51E000893
:10014000A51E0008A51E0008A51E0008A51E000883
:10015000A51E0008A51E0008A51E0008A51E000873
:10016000A51E0008A51E00080000000000000000F9
:10017000000000000000000000000000000000007F
:10018000A51E0008A51E00080000000000000000D9
:10019000A51E0008A51E00080000000000000000C9
:1001A000000000000000000000000000000000004F
:1001B000A51E00080000000000000000A51E0008A9
:0401C000A51E000870
:1001C40010B5054C237833B9044B13B10448AFF38D
:1001D40000800123237010BDC40200200000000031
:1001E4002C25000808B5034B1BB103490348AFF3A2
:1001F400008008BD00000000C80200202C25000873
:100204008379002B36D010B4204B1A68016822EA97
:1002140001021A605A68016822EA01025A600279EE
:1002240002F1804202F59E32116804682143116094
:100234009A68016822EA01029A60DA68016822EA8F
:100244000102DA604379102B0AD003F1804303F5ED
:100254009E331A6801680A431A605DF8044B7047BC
:100264000A4B9A6801680A439A60DA6801680A438B
:10027400DA60F2E7037903F1804303F59E331A68E9
:10028400016822EA01021A60704700BF003C014085
:10029400034B5B69034201D1002070470120704782
:1002A400003C0140014B5861704700BF003C0140D5
:1002B400054B1B69002B00DB7047034B034A5A6054
:1002C40002F188325A60F7E7003C02402301674597
:1002D400024A136943F0004313617047003C024033
:1002E400014BD860704700BF003C0240124BDB68F2
:1002F40013F4803F1BD1104BDB6813F0100F01D0B7
:10030400062070470C4BDB6813F4807F01D0022079
:100314007047094BDB6813F0E00F01D007207047EA
:10032400054BDB6813F0020F03D00820704701204F
:1003340070470920704700BF003C024000B583B0FD
:1003440009238DF80730FFF7D1FF8DF8070003E08C
:10035400FFF7CCFF8DF807009DF80730DBB2012BC7
:10036400F6D09DF8070003B05DF804FB70B50646AF
:1003740049B101290DD0022902D04FF4407503E0A0
:100384004FF4007500E00025FFF7D8FF092803D0DB
:1003940070BD4FF48075F7E70F4C236923F4407365
:1003A400236123691D432561236923F0F803236135
:1003B40023691E4346F002062661236943F4803311
:1003C4002361FFF7BBFF236923F002032361236941
:1003D40023F0F8032361DBE7003C024070B50546D7
:1003E4000E46FFF7ABFF092800D070BD094C236906
:1003F40023F44073236123692361236943F00103D8
:1004040023612E70FFF79AFF236923F00103236110
:10041400EBE700BF003C024000230F2B40D8F0B4B0
:1004240025E084682240826082684C79AC40224393
:10043400826044689FB20126BE4024EA06044460F8
:1004440044688A79BA4092B222434260C2689CB23C
:1004540066000324B44022EA0402C260C268CC7974
:1004640004FA05F51543C56001330F2B16D8012294
:100474009A400C68A243F7D104685D000322AA40A5
:10048400D2431440046004680E79AE4034430460DF
:100494000C79013CE4B2012CD8D8C2E7F0BC704717
:1004A400704701837047418370470AB9418370479D
:1004B4000183704730B401F007039B009A40C908D8
:1004C400083150F821400F2505FA03F324EA030309
:1004D40040F8213050F821301A4340F8212030BC34
:1004E4007047000010B43E4B9B6803F00C030C2BC8
:1004F40073D8DFE803F00772727225727272287281
:1005040072724D00374B0360354CA368C3F3031379
:100514003549CB5CDAB20368D3404360A268C2F3C6
:1005240082228A5CD2B223FA02F28260A268C2F307
:1005340042328A5CD2B2D340C3605DF8044B704748
:100544002A4B0360E0E7264B5A685B6803F03F03DD
:1005540012F4800F12D0254AB2FBF3F2204B5B68F1
:10056400C3F3881303FB02F31D4A5268C2F301422A
:1005740001325200B3FBF2F30360C5E7194AB2FB40
:10058400F3F2174B5B68C3F3881303FB02F3EBE747
:10059400134B5A685B6803F03F0312F4800F12D0C8
:1005A400124AB2FBF3F20E4B5B68C3F3881303FBEE
:1005B40002F30B4A5268C2F3027201325200B3FBD7
:1005C400F2F30360A0E7074AB2FBF3F2044B5B6863
:1005D400C3F3881303FB02F3EBE7024B036093E7D7
:1005E400003802400024F4000000002000127A00C9
:1005F40029B9054A136B23EA000010637047024AC5
:10060400136B1843106370470038024029B9054A38
:10061400536C23EA000050647047024A536C184339
:10062400506470470038024030B401F003039B006B
:100634000F2404FA03F58908074A023152F82140CD
:1006440024EA050442F8214052F82140984020430E
:1006540042F8210030BC70470038014030B585B005
:1006640004460D46038A9BB223F44053CA881343BD
:10067400038283899BB223F4B05323F00C0389884B
:1006840028896A8901430A431343A381A38A9BB23D
:1006940023F44073AA891343A3826846FFF722FF19
:1006A400204B9C4228D003F580639C4224D0029BBB
:1006B400A28912F4004F21D103EB830303EB8303DC
:1006C40029688900B3FBF1F1174BA3FB01235809F7
:1006D4000501642300FB1313A28912F4004F16D101
:1006E4001B013233104AA2FB0323C3F343132B43EE
:1006F4009BB2238105B030BD039BD9E703EB830391
:1007040003EB830329684900B3FBF1F1DCE7D9006B
:100714003231054AA2FB0131C1F3421245EA020318
:10072400E6E700BF001001401F85EB5131B9838912
:100734009BB223F400539BB28381704783899BB29D
:1007440043F4005383817047C1F3080181807047EB
:100754008088C0F30800704710B4C1F3421401F05C
:100764001F01012303FA01F19C420AD0022C0AD092
:10077400143052B9036823EA010101605DF8044BA7
:1007840070470C30F5E71030F3E703681943016054
:10079400F4E70388194201D1002070470120704713
:1007A400C94389B20180704708B50120FFF770FD85
:1007B40001280CD00220FFF76BFD01280AD0074B5B
:1007C4004022C3F880208022C3F8802008BDFFF7B0
:1007D40069FDEFE70220FFF765FDF0E700E100E0C7
:1007E400F0B58BB001210846FFF702FF41F6FF1375
:1007F400089301248DF8244000258DF826508DF8A7
:10080400275002268DF8256008A92E48FFF704FE1C
:1008140021463046FFF7ECFE4EF2F86306938DF85E
:100824001C408DF81E508DF81F408DF81D40264F3A
:1008340006A93846FFF7F0FD4FF4805306938DF870
:100844001C408DF81E508DF81F608DF81D4006A9C0
:100854003846FFF7E1FD072304938DF814508DF813
:1008640016508DF8174003238DF8153004A9384627
:10087400FFF7D2FD21460420FFF7BAFE43F6FF73CB
:1008840002938DF80C408DF80E508DF80F508DF8B2
:100894000D6002A90D48FFF7BFFD21460820FFF7B0
:1008A400A7FE042300938DF804408DF806508DF8BC
:1008B40007508DF8054069460548FFF7ADFD0BB0BC
:1008C400F0BD00BF000002400004024000080240E6
:1008D400000C024000B583B001214FF48040FFF7C3
:1008E40095FE00210120FFF79FFE012300930022C3
:1008F4008DF8042008228DF805208DF8063068460E
:10090400FFF77EFC03B05DF804FB00B583B0012162
:100914004FF48040FFF77AFE00210120FFF784FEA8
:100924000123009300228DF804200C228DF8052069
:100934008DF806306846FFF763FC03B05DF804FBEE
:1009440000B583B001214FF48040FFF75FFE012121
:100954000846FFF769FE0223009300238DF8043054
:1009640008238DF8053001238DF806306846FFF71B
:1009740047FC03B05DF804FB00B583B001214FF4DC
:100984008040FFF743FE01210846FFF74DFE022396
:10099400009300238DF804300C238DF805300123D7
:1009A4008DF806306846FFF72BFC03B05DF804FBB6
:1009B40008B51B4B1B78DBB2012B12D00120FFF7CB
:1009C40067FC68B1174B1B78DBB2012B0DD0154BBC
:1009D4001B7813B9144BDB78BBB10120FFF762FC21
:1009E40008BD0120FFF75EFC08BD0F4BDB78012B2F
:1009F400EDD14FF480510D48FFF753FD0022094B10
:100A04001A7001220A4B1A70E7E74FF48051074825
:100A1400FFF749FD0122034B1A7000F079FFDCE770
:100A24001D030020F00000202003002000040240E9
:100A3400E902002008B51B4B1B78DBB2012B12D056
:100A44000220FFF725FC68B1174B1B7813B9174B2D
:100A54009B7963B1144B1B78DBB2012B12D00220BB
:100A6400FFF720FC08BD0220FFF71CFC08BD4FF473
:100A740080510F48FFF717FD01220B4B1A7000F04D
:100A840047FFECE7094B9B79012BE8D14FF48051E8
:100A94000748FFF706FD0022034B1A700122054B9D
:100AA4001A70DCE71D030020F00000202003002062
:100AB40000040240E902002010B580B90022802120
:100AC4000A48FFF7F2FC094C012220212046FFF7D7
:100AD400ECFC002220212046FFF7E7FC10BD012298
:100AE40080210248FFF7E1FCEDE700BF000002406F
:100AF40010B5044600F08000FFF7DEFF04F040006C
:100B0400FFF7DAFF04F02000FFF7D6FF04F010002F
:100B1400FFF7D2FF04F00800FFF7CEFF04F0040053
:100B2400FFF7CAFF04F00200FFF7C6FF04F001005C
:100B3400FFF7C2FF10BD0000F8B515461C469DF82E
:100B44001870E0B9A1F141030022134931F81510DE
:100B5400124850F82300FFF7A8FC413C0E4E0F4DFD
:100B6400012236F8171055F82400FFF79EFC0022E6
:100B740036F8171055F82400FFF797FCF8BDA1F1DB
:100B840041030122044931F81510044850F82300A8
:100B9400FFF78BFCE1E700BF1000002030000020CD
:100BA4002DE9F04182B004460E46174698469DF85A
:100BB4002050009500F08000FFF7BEFF00954346EB
:100BC4003A46314604F04000FFF7B6FF009543462D
:100BD4003A46314604F02000FFF7AEFF0095434645
:100BE4003A46314604F01000FFF7A6FF009543464D
:100BF4003A46314604F00800FFF79EFF009543464D
:100C04003A46314604F00400FFF796FF0095434648
:100C14003A46314604F00200FFF78EFF0095434642
:100C24003A46314604F00100FFF786FF02B0BDE802
:100C3400F0810000F8B507460E461546FFF738FB6D
:100C44000024B44210DA395D2846FFF7C7FB084B8D
:100C5400187001351B78DBB2092B01D10134F0E7A0
:100C6400FFF736FB0120F8BDFFF732FB0020F8BD8B
:100C7400F100002010B50446FFF71AFB02212046BC
:100C8400FFF774FB092804D00124FFF721FB204659
:100C940010BD0024F9E7000008B5044B1B68042BC1
:100CA40000D008BD01F07EFAFBE700BF1C11002054
:100CB40008B5002001F0D4F908BD0000F0B40646E0
:100CC40002B2002001E0013212B20B4B5B789A426F
:100CD4000FDA731E094C03EB43035D00675D02EBFF
:100CE40042056B00E35C9F42EDD10A54013000B22F
:100CF400E9E7F0BC704700BF4C1100209C0F0020B6
:100D04002D4B1B680C2B00D8704730B585B00021E3
:100D14000091019102910391284C2948034653F80C
:100D2400045F5A68256062601B7A2372224B196043
:100D3400D4F80520D4F8013003FB02F3214A1360F0
:100D44004FF4406201F02FFB20781F4B18700128EC
:100D540006D06946FFF7B2FF002817DD002313E031
:100D64001A4A1B4B1A601CE004AA1A4412F8104CCD
:100D7400124A1278023A174951F8222002321449D1
:100D840041F8242001331BB28342EDDB0B4B1B786B
:100D9400591E023B0F4A52F8233002330C4A42F8E0
:100DA400213001220C4B1A70002001F059F90C2259
:100DB4000A4B1A7005B030BD1C110020E41000204D
:100DC4009803002050030020441100200000020872
:100DD400F4020020F0100020F0020020E2100020B5
:100DE400F0B595B08C4B1C688C4B1B689C4242D26E
:100DF4008B4B1B68032B08D98A4B19688A4B1960E3
:100E04000A1D874B1B689A4201D915B0F0BD874B68
:100E14001B78013B864A52F82320224489B2854834
:100E2400FFF708FFC0B240B10128EED1032001F062
:100E340017F90B22804B1A70E7E77F4C01252570C8
:100E44004FF440620021774801F0ADFA7249764AC6
:100E54000B68106803440B600020714B186010602D
:100E6400764B1D70764A13782B44137001F0F8F812
:100E74000C232370C9E73E22002104A801F093FA51
:100E8400002300930193029303936C4A1370674BFE
:100E94001878012806D06946FFF710FF00281DDDE9
:100EA400002319E00138624B1B681C44654B43F86E
:100EB40020401FE014AA1A4412F8504C5B4A1278DE
:100EC400013A5B4951F82220534909680A445D49B3
:100ED40041F8242001331BB28342EBDB534B1B78D4
:100EE400013B534A52F823204B4909680A445549A7
:100EF40041F823204FF4406200214A4801F053FA9C
:100F04000023474A1360454A136004AC4E4D0FCD8D
:100F14000FC42B682380454B1C78012C34D0022C41
:100F24004DD02020FFF7A6FE01286CD0464E324655
:100F34003E2104A8FFF77EFE5FFA80FE434D34464F
:100F44000FCC28606960AA60EB6023882B82354649
:100F54003F4C30362F460FCF20606160A260E360C3
:100F64003D461034B742F5D107CD20606160A260E0
:100F74002B88A381BEF1010F49D00022264B1A60B1
:100F84000B222D4B1A7040E704AD2F4E0FCE0FC528
:100F940033682B802F4B1A788DF82220D3F8012048
:100FA4000992D3F805300A930B93013C204B53F874
:100FB40024300C93234B53F824300D93B1E704AD44
:100FC400214E0FCE0FC50FCE0FC596E8030085E85E
:100FD4000300204B1A788DF83820D3F80120CDF87F
:100FE4003A20D3F80530CDF83E30CDF84230013CFC
:100FF4000F4B53F82430CDF84630124B53F82430BD
:10100400CDF84A308DE7032001F02AF8FDE60320ED
:1010140001F026F8F9E600BF481100205003002033
:101024001C11002098030020E40200204411002039
:10103400F40200209C030020E2100020F0020020B3
:101044001C030020F0100020000001084C110020B7
:1010540054030020E410002038B500240C4B1C700D
:1010640001200C4B1870FFF71DF90B4D4023C5F8F8
:1010740080300220FFF716F98023C5F8803020461F
:1010840000F0EEFF054B1C700B22054B1A7038BDA7
:10109400E90200201D03002000E100E0E00200203E
:1010A400E210002038B52C4B1B68162B00D038BD3D
:1010B4002A4A2B4B53F8045F5C689868D96815601A
:1010C40054609060D1601B8A13825120FFF708F9A5
:1010D4002020FFF7CFFD01281DD0224A12211F48EE
:1010E400FFF7A8FDC0B2012819D01C4B5B78012B77
:1010F40019D0022B20D0032B25D000221A4B1A60C2
:1011040001F0F6F820B3831EDBB2012BCFD8032005
:1011140000F0A6FFCBE7032000F0A2FF38BD0320B8
:1011240000F09EFF38BD4FF0FF33104A1360104AA1
:101134001360104A1360E0E74FF0FF330C4A13606A
:101144000C4A1360D9E74FF0FF320A4B1A60D4E718
:1011540000F086FF38BD00BF1C1100204C11002098
:1011640098030020000001086011002014110020E1
:10117400DC1000204C030020484B1B682D2B00D0B2
:10118400704770B5FFF710FB45490B1D454A2431E4
:101194001E685D689C68D868166055609460D0606D
:1011A400103310328B42F3D11868596810605160C3
:1011B4001B7A13725120FFF793F81820FFF75AFD9A
:1011C40001281DD0384A29213648FFF733FDC0B223
:1011D400012819D0334B1B7903BB324B9B78012B6D
:1011E40016D0C3B12F4BDB7933BB2E4B5B79012B6C
:1011F4001CD0F3B100232D4A13702D4A137025E03F
:10120400032000F02DFF70BD032000F029FF70BD06
:10121400FFF77BFBE6E7FFF75DFBE3E70120FFF762
:1012240041F84022234BC3F88020DBE7FFF7A4FBFF
:10123400E0E7FFF785FBDDE70220FFF733F88022C4
:101244001C4BC3F88020D5E70133DBB2154A127872
:10125400934209D2134A1A44527A002AF4D0144908
:101264000A7801320A70EFE7002301E00133DBB2B0
:101274000C4A5278934209D20A4A1A44527E002AEE
:10128400F4D00A490A7801320A70EFE7002000F02E
:10129400E7FE0122084B1A7070BD00BF1C1100202C
:1012A400980300202003002000C00008E110002063
:1012B400E802002000E100E0E1020020284B1B6866
:1012C4003C2B00D0704770B526490B1D264A34319B
:1012D4001E685D689C68D868166055609460D0602C
:1012E400103310328B42F3D1186859689B68106030
:1012F400516093605120FEF7F3FF5820FFF7BAFCCA
:10130400012809D0194A3C211748FFF793FCC0B2C1
:10131400012805D000230DE0032000F0A1FE70BDDC
:10132400032000F09DFE70BD11490A7801320A7055
:101334000133DBB2092B0ED803EB430251000A4AF6
:101344000A445279282AEFD0292AF1D109490A7886
:1013540001320A70ECE7002000F082FE70BD00BF8D
:101364001C110020980300209C0F002000000E0890
:10137400641100203C11002008B5002000F070FE2C
:1013840008BD08B5002000F06BFE08BD002304E092
:10139400C25CD243C25401331BB28B42F8DB7047A8
:1013A4002DE9F04F83B0814B1B7813B1804B1B7830
:1013B40033B9804B59787D4A11701A787C4B1A7076
:1013C4007D4B93F801316A2B17D06A2B1FD0002272
:1013D4004FF400717948FFF768F8774B93F80021D0
:1013E400774B1B689A4240F29A8010217548FFF7A8
:1013F4005AF84FF0000AD14644E0714A126812F0DC
:10140400010FE2D078216C48FFF7C0FFDFE76C4B97
:101414001B68002BDBD078216748FFF7B7FFD6E7BE
:10142400009533463A4641460020FFF7B9FB0BF1DD
:10143400FF3B5FFA8BFB0134E4B25E4B1B789C42AA
:1014440014D25C4B23445B7A002BE9D0584B1B78B5
:1014540013FB0AF35BFA83F3DBB2574AD05C0095C3
:1014640033463A464146FFF79BFBE0E70AF1010A9F
:101474005FFA8AFA10215348FFF715F809F10109B8
:101484005FFA89F94B4B5B7899453BD24E4809EB9F
:101494008903C21892F801804C4DEA1856789C1CB6
:1014A400204400F04DFFC7B2281900F049FFC5B22F
:1014B400474B4B4498783F4B03445C7E4CB1FFF759
:1014C40017FB10213F48FEF7ECFF4FF00B0B0024F5
:1014D400B3E7FFF70DFB10213A48FEF7E2FF08E0FF
:1014E400009533463A4641460020FFF759FB013444
:1014F400E4B2304B1B789C42F2D310213148FEF702
:10150400D2FFBBE72E4A13680133136001224FF464
:1015140000712A48FEF7C9FF03B0BDE8F08F10211F
:101524002848FEF7C0FF4FF0000914E000953B4641
:10153400324641460020FFF733FB0134E4B21D4B31
:101544001B789C42F2D310211E48FEF7ACFF09F130
:1015540001095FFA89F9174B5B7899451CD21C4B3A
:101564004B449878FFF7C4FA10211648FEF799FF08
:10157400154809EB8903C21892F80180134DEA1843
:1015840057789C1C204400F0DBFEC6B2281900F0FA
:10159400D7FEC5B20024D2E70023094A13600B2109
:1015A4000C4A11700C4A1370B0E700BFE110002020
:1015B400E802002020030020D80F0020000402408D
:1015C4006011002000000240A00000205000002014
:1015D4004C110020E2100020E00200202DE9F84F19
:1015E40000AFCB1D23F00703ADEB030D6E464FF0A8
:1015F4000009CC464CE003F1070B16E02D1B16F94D
:101604000EA010F80BB002EA0B0242FA05F54AEA02
:10161400050506F80E50013C0C33B3F5707F22DA51
:10162400002C20DB9B46002BE5DB4FEAEB0B5D42F5
:1016340003F0070205F0070558BF6A42C2F1070527
:101644000122AA40A4EB050ABAF1000FD6DD16F96F
:101654000E5010F80BB002EA0B0202FA0AF22A4307
:1016640006F80E20D7E70CF1010C5FFA8CFC08F1A8
:101674000108B8F10B0F09DCE646002306F80C302C
:1016840009EB4902530143440724C6E709F1010960
:10169400B9F1090F0FDC614502D94FF00008E8E702
:1016A400002303E0F25CC2540133DBB29942F9D85F
:1016B400BD46BDE8F88F0023F8E700002DE9F04FA0
:1016C400ADF5437D4FF480742246002182A800F0DA
:1016D4006AFE2246002142A800F065FE224600214F
:1016E40002A800F060FE7B4B5A697B4B1B689A4250
:1016F40006D80022784B1A60784A136801331360C5
:10170400744BD3F82A20764B1B689A4206D80022E1
:10171400734B1A60734A136801331360724B5B791D
:10172400282B0FD0704BDB7A292B1AD0694BD3F8B6
:101734003230002B36D0013B02AAD35C002B31D0CF
:10174400002327E0634B196ADB69634C20681A465F
:1017540003FB001142A800F01BFE23680133236041
:10176400E0E75C4BD3F83610D3F832305C4C206899
:101774001A4603FB001102A800F00AFE2368013395
:101784002360D3E702AAD25C42A9C95C0A4082A9B9
:10179400CA540133772BF5D906E042AAD15C82AA58
:1017A400D1540133772BF8D9782182A8FFF716FF9B
:1017B40010214E48FEF777FE00224FF400714C488A
:1017C400FEF773FE4FF0000AD14631E00095334630
:1017D4003A4641460020FFF7E3F90BF1FF3B5FFA7D
:1017E4008BFB0134E4B2434B1B789C4214D2414B33
:1017F40023445B7A002BE9D03F4B1B7813FB0AF39D
:101804005BFA83F3DBB282AAD05C009533463A4696
:101814004146FFF7C5F9E0E70AF1010A5FFA8AFADF
:1018240010213248FEF73FFE09F101094FFA89F908
:10183400304B5B7899453BDA304809EB8903C21891
:1018440092F801802E4DEA1856789C1C204400F032
:1018540077FDC7B2281900F073FDC5B2294B4B447C
:101864009878244B03445C7E4CB1FFF741F9102176
:101874001E48FEF716FE4FF00B0B0024B3E7FFF7EC
:1018840037F910211948FEF70CFE08E0009533469D
:101894003A4641460020FFF783F90134E4B2154B80
:1018A4001B789C42F2D310211048FEF7FCFDBBE7E5
:1018B400154A13680133136001224FF400710C4878
:1018C400FEF7F3FD0B22114B1A700DF5437DBDE8B5
:1018D400F08F00BF54030020401100201811002095
:1018E40014110020101100209C0F00200000024061
:1018F4000004024020030020E8020020A000002091
:10190400500000204C11002060110020E210002043
:1019140008B5084B1B78DBB2012B05D0054B1B78AF
:10192400DBB2102B03D008BDFFF73AFD08BDFFF76B
:10193400C5FEF8E7E0020020F8B5874B1B68172BBB
:1019440040F20981854B864A52F8041F5568946811
:10195400D06819605D609C60D8601169196119686C
:10196400804A11605968804A116099687F4A116001
:10197400D9687F4A11601A697E4B1A607E4B1B68D6
:1019840023B17E4B1B78002B40F086807C4D7D4F2D
:101994003C460FCC28606960AA60EB6023882B82E8
:1019A4003C46794D303726460FCE28606960AA60E0
:1019B400EB6034461035BE42F5D1334607CB286080
:1019C4006960AA601B88AB81704C714D04F12007DB
:1019D40026460FCE28606960AA60EB603446103555
:1019E400BE42F5D103CC2860696023782B72694C20
:1019F400694D04F1300726460FCE28606960AA605D
:101A0400EB6034461035BE42F5D107CC28606960DE
:101A1400AA605F4B1B792BB95D4B9B78012B0CD1D2
:101A2400FEF773FF5A4BDB792BB9594B5B79012BCA
:101A340008D1FEF7A1FF00230BE0002BF2D1FEF743
:101A440049FFEFE7002BF6D1FEF77AFFF3E7013306
:101A5400DBB24F4A1278934209D24D4A1A44527A61
:101A6400002AF4D04D490A7801320A70EFE70023C6
:101A740001E00133DBB2464A5278934209D2444A28
:101A84001A44527E002AF4D045490A7801320A7079
:101A9400EFE70122394B1A70424B40221A60802230
:101AA4001A60374B5B78012B08D0022B0FD0032B25
:101AB40014D0002000F0D4FA00211AE04FF0FF33D4
:101AC4002A4A1360384A1360384A1360F1E74FF02A
:101AD400FF33354A1360354A1360EAE74FF0FF32AB
:101AE400324B1A60E5E7013342F20F729342FAD99E
:101AF4000131632901D80023F6E72D4B1B7813B17C
:101B04002C4B1B78E3B900232A4A1370284A13701C
:101B140005E027490A7801320A700133DBB2092B48
:101B24000ED803EB430251001B4A0A445279282A77
:101B3400EFD0292AF1D11F490A7801320A70ECE763
:101B440010221D4B1A70FFF7E3FE0022024B1A60AD
:101B54000B221A4B1A70F8BD1C110020281100200A
:101B640098030020401100201811002014110020B7
:101B74001011002060110020F4020020E102002076
:101B84004C110020000001085403002000C000088C
:101B94002003002000000E089C0F0020E802002013
:101BA400E110002000E100E0DC1000204C030020E4
:101BB400641100203C110020E0020020E21000200B
:101BC400002302E0C35401331BB20F2BFADD70472C
:101BD400F8B55A4B1B68B3F5847F00D2F8BD58485A
:101BE400FFF7EEFF4FF482725649574800F0D0FBDE
:101BF4000023564A1360564A13604FF0FF31554A8A
:101C04001160554A1360554A1360554B1B78002BDD
:101C140062D1544C544D04F1200726460FCE28605F
:101C24006960AA60EB6034461035BE42F5D103CC3E
:101C34002860696023782B724B4B1B79ABB94A4BF4
:101C44009B78012B0CD1FEF760FE474BDB79CBB9B7
:101C5400454B5B79012B10D1FEF78EFE00231BE070
:101C6400002BF2D1FEF736FEEFE70120FEF71AFB58
:101C740040223E4BC3F88020E7E7002BEED1FEF76D
:101C84005FFEEBE70220FEF70DFB8022374BC3F823
:101C94008020E3E70133DBB2334A1278934209D25E
:101CA400314A1A44527A002AF4D031490A7801326E
:101CB4000A70EFE7002301E00133DBB22A4A5278CD
:101CC400934209D2284A1A44527E002AF4D0294960
:101CD4000A7801320A70EFE70B22274B1A700124AD
:101CE400264B1C70FFF714FE002000F0B9F91C4BC2
:101CF4001C70002105E0013342F20F729342FAD9BD
:101D04000131632901D80023F6E7174B1B7933B15E
:101D1400154BDB7953B10022084B1A605EE70120B2
:101D2400FEF7C0FA4022114B1A60F1E70220FEF7D9
:101D3400B9FA80220D4B1A60EDE700BF1C11002098
:101D44004E1100209C030020D80F002040110020D9
:101D5400181100201411002010110020601100201F
:101D6400E102002000C000082003002000E100E0A0
:101D7400E8020020E1100020E2100020E002002030
:101D840008B500F0C7F8FEF72BFD0B222C4B1A7098
:101D94000CE0FEF78DFF2B4B1B781BB12A4B1B78F5
:101DA400002B45D0294B1B78002B45D1244B1B78A5
:101DB400DBB20D2BEFD801A252F823F0971D0008D7
:101DC400F91D0008FF1D0008051E00089B1D0008E2
:101DD4000B1E0008111E0008171E00081D1E000817
:101DE400231E00089B1D0008291E00089B1D0008D7
:101DF4002F1E0008FEF784FFCDE7FFF79DFDCAE71D
:101E0400FFF72AF9C7E7FFF74DF9C4E7FFF7B4F97D
:101E1400C1E7FFF753FABEE7FFF7AEFABBE7FFF7F8
:101E2400B0FAB8E7FEF738FFB5E7FFF7D1FEB2E73F
:101E3400002000F021FAB5E7FEF7D2FFB6E700BFB5
:101E4400E2100020E90200201D030020F00200201F
:101E5400DFF834D0002103E00C4B5B5843500431CD
:101E64000B480C4B42189A42F6D30B4A02E000236B
:101E740042F8043B094B9A42F9D300F023F800F0EE
:101E840063FAFFF77DFF7047000002205826000820
:101E940000000020C4020020C40200206C110020B5
:101EA400FEE700004FF4C062054B1A60A3F580639F
:101EB4009A689A609A689A609A689A60704700BFB4
:101EC400003C024010B5104CD4F8883043F4700341
:101ED400C4F888300D4B1A6842F001021A600021E0
:101EE40099601A6822F0847222F480321A60084AD7
:101EF4005A601A6822F480221A60D960FFF7D2FF70
:101F04004FF00063A36010BD00ED00E00038024014
:101F14001030002470B586B001211020FEF776FB46
:101F240001210846FEF764FB4FF4C06304930223C7
:101F34008DF8143000268DF8166001258DF81750A1
:101F44008DF815501D4C04A92046FEF765FA0722AA
:101F540009212046FEF7AEFA07220A212046FEF7A1
:101F6400A9FAA4F5704440212046FEF719FC4FF469
:101F7400E1330093ADF80460ADF80660ADF8086095
:101F84000C23ADF80A30ADF80C6069462046FEF724
:101F940065FB2A4660212046FEF7DEFB2A4640F216
:101FA40025512046FEF7D8FB29462046FEF7BEFB06
:101FB4002022034B5A6006B070BD00BF00000240EF
:101FC40000E100E038B572B6214A13889BB29289C9
:101FD40013F00F0F1AD192B213F0200F02D012F0A7
:101FE400200F08D11B4B1B68B3F5406F1AD3002296
:101FF400184B1A6016E0174C25681548FEF7A8FB25
:10200400154B5855236801332360EBE713F0020F97
:102014000AD113F0040F0CD113F0080F0ED10C48A1
:10202400FEF796FB62B638BD02210948FEF7B8FBFD
:10203400F5E704210648FEF7B3FBF0E7074A136807
:102044000133136008210248FEF7AAFBE7E700BF4B
:10205400001001401C11002098030020980F00205C
:1020640030B593B040F60B33ADF8403001238DF812
:102074004230464B1B788DF843308DF8440048B904
:10208400424B1B78DBB2082B15D0404B1B78DBB2DC
:10209400092B17D010AD0524FCB180213C48FEF774
:1020A40078FB0128F8D115F8011B3948FEF74CFBE1
:1020B400013CE4B2F0E70BAC364D0FCD0FC42B68F6
:1020C4002380E7E76C46344D0FCD0FC40FCD0FC40A
:1020D40095E8070003C42270DCE740212C48FEF792
:1020E40058FB0128F9D0294B1B78DBB2082B1CD0F4
:1020F400264B1B78DBB2092B2FD0244B1B78DBB289
:10210400022B10D0214B1B78DBB2012B0BD00B22FE
:102114001E4B1A704FF440620021204800F043F92E
:1021240000221F4B1A6013B030BD0BAD12246CB1EA
:1021340080211748FEF72DFB0128F8D115F8011B63
:102144001348FEF701FB013CE4B2F0E740211048DC
:10215400FEF71FFB0128F9D0CFE76D4629246CB1A7
:1021640080210B48FEF715FB0128F8D115F8011B57
:102174000748FEF7E9FA013CE4B2F0E740210448DD
:10218400FEF707FB0128F9D0B7E700BFE2100020F3
:10219400001001400000010800C00008980300205E
:1021A4001C11002000B583B02E4B1B6801939BB219
:1021B40040F60B3293420ED09DF80630012B0AD024
:1021C4000021294B19604FF44062264800F0EBF8D7
:1021D4000220FFF745FF9DF80730ABB1012B19D062
:1021E400022B1BD0032B20D0052B26D0062B28D066
:1021F400072B2AD0082B2CD0092B2ED00D2B06D13F
:102204000D221A4B1A7002E00022184B1A7003B008
:102214005DF804FB0122154B1A70F8E70222134BF8
:102224001A700022124B1A70F1E7124A1268002A3F
:10223400DAD103220D4B1A70E9E705220B4B1A7011
:10224400E5E70622094B1A70E1E70722074B1A70EB
:10225400DDE70822054B1A70D9E70922034B1A70EF
:10226400D5E700BF980300201C110020E2100020D5
:102274001D0300205003002030B58BB0154B1B68A4
:102284000193154B1B680293144B1B680393144B67
:102294001B680493134B1B680993242401AD6CB190
:1022A40080211148FEF775FA0128F8D115F8011BB1
:1022B4000D48FEF749FA013CE4B2F0E740210A4830
:1022C400FEF767FA0128F9D00022084B1A700BB008
:1022D40030BD00BF4011002018110020141100204F
:1022E400101100206011002000100140E9020020BC
:1022F40008B52820FEF7BEFC012801D1032008BD43
:102304003020FEF7B7FC012801D1032008BD382096
:10231400FEF7B0FC012801D1032008BD4020FEF7E0
:10232400A9FC012801D1032008BD4820FEF7A2FC26
:10233400012803D008B1032008BD08BD032008BD4F
:102344000A22002100F0B8B870B50D4E0D4CA41B44
:10235400A4100025A54209D10B4E0C4C00F0E4F862
:10236400A41BA4100025A54205D170BD56F8253044
:1023740098470135EEE756F8253098470135F2E7DE
:10238400502600085026000850260008542600084D
:1023940010B5431E0A44914200D110BD11F8014BFF
:1023A40003F8014FF7E702440346934200D1704714
:1023B40003F8011BF9E72DE9F84F80468946924658
:1023C4001F468B465D460A9815F8014B00F08AF8C3
:1023D4002044467816F008060BD12D2C0BD12C780E
:1023E40001260BF1020567B1102F14D1302C0AD04D
:1023F40011E0AB46E6E72B2C04BF2C780BF1020569
:10240400F1E7302C27D12B7803F0DF03582B4BD185
:102414006C7810270235002E0CBF6FF000414FF08E
:1024240000410022B1FBF7FE104607FB1E1CA4F17D
:102434003003092B11D81C46A7421DDD531C07D0BD
:10244400864516D301D1A44513DB00FB07400122C6
:1024540015F8014BEBE70A27DDE7A4F14103192B3B
:1024640001D8373CE8E7A4F16103192B04D8573CA1
:10247400E2E74FF0FF32EBE7531C08D12223C8F800
:1024840000300846BAF1000F07D1BDE8F88F06B155
:102494004042BAF1000F0CD022B1013DCAF80050FD
:1024A400BDE8F88F4D46F9E73024002FB3D1082753
:1024B400B1E7BDE8F88F0000084B37B51C68084D3C
:1024C400236A002B08BF2B46009313460A46014695
:1024D4002046FFF770FF03B030BD00BFF4000020BA
:1024E40058010020D0F8EC00704782B001B901A96E
:1024F40042B14BB113780B601278101C18BF012045
:1025040002B070471046FBE76FF00100F8E749B1ED
:10251400FF2A85BF8A2303600A704FF0FF3098BFFB
:102524000120704708467047F8B500BFF8BC08BCE6
:102534009E467047F8B500BFF8BC08BC9E4670477D
:102544004300504F534958002E00002020202020E3
:10255400202020202828282828202020202020204F
:10256400202020202020202020202088101010103F
:102574001010101010101010101010040404040493
:1025840004040404041010101010101041414141BF
:1025940041410101010101010101010101010101A7
:1025A40001010101010110101010101042424242B9
:1025B4004242020202020202020202020202020277
:1025C400020202020202101010102000000000009B
:1025D40000000000000000000000000000000000F7
:1025E40000000000000000000000000000000000E7
:1025F40000000000000000000000000000000000D7
:1026040000000000000000000000000000000000C6
:1026140000000000000000000000000000000000B6
:1026240000000000000000000000000000000000A6
:102634000000000000000000000000000000000096
:0C2644000000000000000000000000008A
:04265000E901000894
:04265400C5010008B4
:102658000000000001020304010203040607080940
:102668000100020004000800100020004000800063
:102678000001000200040008001000200040008053
:10268800000002400004024000080240000C024022
:10269800001002400014024000180240001C0240D2
:1026A80050433133005043303300504330310050F1
:1026B80041303100504130330050433034005042F3
:1026C80031300050423134005043303600504330EE
:1026D80038005041303800504131320050433131D8
:1026E80000504430320050423034005042303600FE
:1026F80050433030005041303000504330320050A9
:10270800413032005041303600504330350050429D
:102718003133005042313500504330370050433098
:10272800390050413131005043313000504331328B
:1027380000504230330050423035005042303700AC
:1027480001090000F800002000000000000000005F
:102758000000000000000000000000000000000071
:102768000000000000000000000000000000000061
:102778000000000000000000000000000000000051
:102788000000000000000000000000000000000041
:102798000000000000000000000000000000000031
:1027A80000000000000000004300000000000000DE
:1027B8000000000000000000000000000000000011
:1027C80000000000000000004300000000000000BE
:1027D80000000000000000000000000000000000F1
:1027E800000000000000000043000000000000009E
:1027F80000000000000000000000000000000000D1
:10280800000000000000000043000000000000007D
:1028180000000000000000000000000000000000B0
:10282800000000000000000043000000000000005D
:102838000000000000000000000000000000000090
:10284800000000000000000043000000000000003D
:102858000000000000000000000000000000000070
:10286800000000000000000043000000000000001D
:102878000000000000000000000000000000000050
:10288800000000000000000013250008EF240008E5
:10289800000000004E2500084C2500084D250008C2
:1028A8004D2500084D2500084D2500084D25000838
:1028B8004D2500084D2500084D2500084D25000828
:1028C800FFFFFFFFFFFFFFFFFFFFFFFFFFFF00000E
:1028D8000100415343494900000000000000000086
:1028E80000000000000000000000000000000000E0
:1028F8000000415343494900000000000000000067
:1029080000000000000000000000000000000000BF
:0429180000000000BB
:0400000508001E557C
:00000001FF
